:0200000039289D
:0C00060083121B088A001A088200080000
:1000120003208A110A128000840A9A0A03199B0A91
:08002200C003031D09280800BA
:10002A0083128C018D010617013090000030910077
:10003A0086128E018F0194019501023096000030DC
:04004A009700080013
:10004E0083128C018D01861601308E0000308F00D8
:10005E000613900191019401950101309600003034
:04006E0097000800EF
:1000720083128C018D018E018F01900191019201F9
:100082009301940195019601970198019901063017
:10009200831686008312861C7328061D732800307F
:1000A2001506031D562801301406031D732800305F
:1000B2001706031D5E280130160603197328980AD5
:1000C2000319990A80301906C0008030003A4002B4
:1000D200031D6D2820301802031C72289801990113
:1000E2002720D028831286189B2806199B280030C7
:1000F2001506031D7E2801301406031D9B280030BF
:100102001706031D86280230160603199B28980A33
:100112000319990A80301906C0008030003A400263
:10012200031D952820301802031C9A289801990172
:100132001520D02800300F06031DA12801300E061D
:100142000319AC2800301106031DA928013010063E
:100152000319AC28C4288C0A03198D0A80300D06B5
:10016200C0008030003A4002031DB928B9300C02A9
:10017200031CC32883128E018F0190019101860115
:100182008C018D01D02883128618D028061DD02814
:1001920092019301960197019801990186011A3003
:1001A200CC00F830CD00CD0BD428CC0BD4280000E5
:0C01B20001309400003095004B28DE283E
:02400E00F13F80
:00000001FF
