:0200000039289D
:0C000600831219088A0018088200080004
:1000120003208A110A128000840A980A0319990A95
:08002200C003031D09280800BA
:10002A0083128C018D010617013092000030930073
:10003A0086128E018F0194019501013096000030DD
:04004A009700080013
:10004E0083128C018D01861601308E0000308F00D8
:10005E000613920193019401950101309600003030
:04006E0097000800EF
:1000720083128C018D018E018F01900191019201F9
:10008200930194019501960197010630831686002B
:100092008312861C7128061D712800301506031D67
:1000A200542801301406031D712800301706031D61
:1000B2005C2800301606031D7128900A0319910A64
:1000C20080301106C0008030003A4002031D6B28C8
:1000D20020301002031C7028900191012720CC28A7
:1000E2008312861899280619992800301506031DCF
:1000F2007C2801301406031D992800301706031DC1
:10010200842800301606031D9928900A0319910AC3
:1001120080301106C0008030003A4002031D93284F
:1001220020301002031C9828900191011520CC2840
:1001320000300F06031D9F2801300E060319AA285E
:1001420000301306031DA728013012060319AA283E
:10015200C2288C0A03198D0A80300D06C000803037
:10016200003A4002031DB728B9300C02031CC12813
:1001720083128E018F019201930186018C018D0100
:10018200CC2883128618CC28061DCC28960197010C
:100192009001910186011A30CC00F830CD00CD0BD0
:1001A200D028CC0BD02800000130940000309500FC
:0401B2004928DA28D6
:02400E00F13F80
:00000001FF
