:020000002D28A9
:0C000600831215088A001408820008000C
:1000120003208A110A128000840A940A0319950A9D
:08002200C003031D09280800BA
:10002A0083128E018F01061701309200003093006F
:08003A008612900191010800FB
:1000420083128E018F0186160130900000309100DC
:0800520006139201930108005E
:10005A0083128C018D018E018F0190019101920111
:10006A0093010630831686008312861C4F288C0A59
:10007A0003198D0A80300D06C0008030003A400214
:10008A00031D492820300C02031C4E288C018D01C7
:10009A00212090288312061D65288C0A03198D0ACF
:1000AA0080300D06C0008030003A4002031D5F28F0
:1000BA0020300C02031C64288C018D011520902825
:1000CA0000301106031D6B2801301006031976282B
:1000DA0000301306031D732801301206031976280F
:1000EA008C288E0A03198F0A80300F06C0008030D0
:1000FA00003A4002031D8328C8300E02031C8B28D5
:10010A0090019101920193018E018F01902883122F
:10011A0086018C018D011A30CC00F830CD00CD0B50
:0C012A009428CC0B9428000039289A2857
:02400E00F93F78
:00000001FF
